:100000000C9434000C943E000C943E000C943E0082
:100010000C943E000C943E000C943E000C943E0068
:100020000C943E000C943E000C943E000C943E0058
:100030000C943E000C943E000C943E000C943E0048
:100040000C943E000C943E000C943E000C943E0038
:100050000C943E000C943E000C943E000C943E0028
:100060000C943E000C943E0011241FBECFEFD8E04C
:10007000DEBFCDBF0E946E000C9476000C94000091
:10008000CF93DF9300D000D0CDB7DEB719821A82AC
:100090001B821C8289819A81AB81BC818032914A0A
:1000A000A740B105A0F489819A81AB81BC810196FA
:1000B000A11DB11D89839A83AB83BC8389819A81F9
:1000C000AB81BC818032914AA740B10560F30F90AB
:1000D0000F900F900F90DF91CF910895219AC2E079
:1000E00085B18C2785B90E944000FACFF894FFCFE4
:00000001FF
